{
  "contractName": "EventTest",
  "abi": [
    {
      "anonymous": false,
      "inputs": [
        {
          "indexed": false,
          "internalType": "uint256",
          "name": "firstNum",
          "type": "uint256"
        },
        {
          "indexed": false,
          "internalType": "uint256",
          "name": "secondNum",
          "type": "uint256"
        },
        {
          "indexed": false,
          "internalType": "uint256",
          "name": "resultNum",
          "type": "uint256"
        }
      ],
      "name": "resultNum",
      "type": "event"
    },
    {
      "constant": true,
      "inputs": [
        {
          "internalType": "uint256",
          "name": "",
          "type": "uint256"
        }
      ],
      "name": "ownersOfNum",
      "outputs": [
        {
          "internalType": "address",
          "name": "",
          "type": "address"
        }
      ],
      "payable": false,
      "stateMutability": "view",
      "type": "function"
    },
    {
      "constant": false,
      "inputs": [
        {
          "internalType": "uint256",
          "name": "num1",
          "type": "uint256"
        },
        {
          "internalType": "uint256",
          "name": "num2",
          "type": "uint256"
        }
      ],
      "name": "addNumbers",
      "outputs": [
        {
          "internalType": "uint256",
          "name": "",
          "type": "uint256"
        }
      ],
      "payable": false,
      "stateMutability": "nonpayable",
      "type": "function"
    }
  ],
  "bytecode": "0x608060405234801561001057600080fd5b506101b6806100206000396000f3fe608060405234801561001057600080fd5b50600436106100365760003560e01c8063101961241461003b578063ef9fc50b146100a9575b600080fd5b6100676004803603602081101561005157600080fd5b81019080803590602001909291905050506100f5565b604051808273ffffffffffffffffffffffffffffffffffffffff1673ffffffffffffffffffffffffffffffffffffffff16815260200191505060405180910390f35b6100df600480360360408110156100bf57600080fd5b810190808035906020019092919080359060200190929190505050610128565b6040518082815260200191505060405180910390f35b60006020528060005260406000206000915054906101000a900473ffffffffffffffffffffffffffffffffffffffff1681565b60008082840190507f1f416a3f0fb62ecd6c692504d8e42b6a9d7d749d31b5cb5b94d227cb036db08084848360405180848152602001838152602001828152602001935050505060405180910390a1809150509291505056fea265627a7a72315820e459ef94374b0a9fe65eca127cc2ce95290f4702442ac2cfc2aaf1f5305b038464736f6c63430005100032",
  "source": "// SPDX-License-Identifier: MIT\npragma solidity >=0.4.22 <0.9.0;\n\ncontract EventTest {\n\n  event resultNum(uint firstNum, uint secondNum, uint resultNum);\n  mapping(uint256 => address) public ownersOfNum; \n\n  function addNumbers(uint num1, uint num2) public returns(uint){\n    uint result = num1 + num2;\n    emit resultNum(num1, num2, result);\n    \n    return result;\n  }\n}\n",
  "sourcePath": "C:\\Users\\Ted\\Development\\D23\\GraphTests\\EventQueryTest\\contracts\\EventTest.sol",
  "compiler": {
    "name": "solc",
    "version": "0.5.16+commit.9c3226ce.Emscripten.clang"
  },
  "schemaVersion": "3.4.3",
  "updatedAt": "2021-09-09T19:35:03.870Z",
  "networkType": "ethereum",
  "devdoc": {
    "methods": {}
  },
  "userdoc": {
    "methods": {}
  }
}